:020000040800F2
:1000000000280020890D00082D0D0008330D000880
:10001000390D00083F0D0008450D000800000000E4
:100020000000000000000000000000004B0D000870
:10003000570D000800000000630D00086F0D000858
:10004000D10D0008D10D0008D10D0008D10D000818
:10005000D10D0008D10D0008D10D0008D10D000808
:10006000D10D0008D10D0008D10D0008D10D0008F8
:10007000D10D0008D10D0008D10D0008D10D0008E8
:10008000D10D0008D10D0008D10D0008D10D0008D8
:10009000D10D0008D10D0008D10D0008D10D0008C8
:1000A000D10D0008D10D0008D10D0008D10D0008B8
:1000B000D10D0008D10D000800000000D10D00088E
:1000C000D10D00080000000000000000D10D000864
:1000D00000000000D10D0008D10D00080000000054
:1000E000D10D0008D10D0008D10D0008000000005E
:1000F0000000000000000000000000000000000000
:0C01000000000000000000005FF808F1A3
:10010C0010B5054C237833B9044B13B10448AFF345
:10011C0000800123237010BD2C0000200000000083
:10012C00DC1B000808B5034B1BB103490348AFF3B4
:10013C00008008BD0000000030000020DC1B00081F
:10014C0080B582B000AF78607B68092B00F28081AB
:10015C0001A252F823F000BF8D010008D501000860
:10016C001D02000865020008AD020008F502000837
:10017C003D03000885030008CD03000815040008A2
:10018C0000220121C64801F003F900220221C448D3
:10019C0001F0FEF800220421C14801F0F9F8002218
:1001AC000821BF4801F0F4F800221021BC4801F0EE
:1001BC00EFF800222021BA4801F0EAF80122402190
:1001CC00B74801F0E5F867E101220121B44801F0DC
:1001DC00DFF800220221B24801F0DAF800220421F3
:1001EC00AF4801F0D5F801220821AD4801F0D0F854
:1001FC0001221021AA4801F0CBF801222021A848A5
:10020C0001F0C6F801224021A54801F0C1F843E1F4
:10021C0000220121A24801F0BBF800220221A048D3
:10022C0001F0B6F8012204219D4801F0B1F800223A
:10023C0008219B4801F0ACF800221021984801F0ED
:10024C00A7F801222021964801F0A2F800224021B3
:10025C00934801F09DF81FE100220121904801F024
:10026C0097F8002202218E4801F092F80022042116
:10027C008B4801F08DF800220821894801F088F89C
:10028C0001221021864801F083F8012220218448A4
:10029C0001F07EF800224021814801F079F8FBE062
:1002AC00012201217E4801F073F8002202217C48D2
:1002BC0001F06EF800220421794801F069F801225E
:1002CC000821774801F064F801221021744801F0EC
:1002DC005FF800222021724801F05AF800224021D8
:1002EC006F4801F055F8D7E0002201216C4801F06D
:1002FC004FF8012202216A4801F04AF80022042139
:10030C00674801F045F800220821654801F040F8E3
:10031C0001221021624801F03BF8002220216048A4
:10032C0001F036F8002240215D4801F031F8B3E0CD
:10033C00002201215A4801F02BF8012202215848D1
:10034C0001F026F800220421554801F021F8002282
:10035C000821534801F01CF800221021504801F0EC
:10036C0017F8002220214E4801F012F800224021FB
:10037C004B4801F00DF88FE000220121484801F0B4
:10038C0007F800220221464801F002F8002204215D
:10039C00434800F0FDFF01220821414800F0F8FF1E
:1003AC00012210213E4800F0F3FF012220213C489D
:1003BC0000F0EEFF01224021394800F0E9FF6BE02C
:1003CC0000220121364800F0E3FF002202213448CC
:1003DC0000F0DEFF00220421314800F0D9FF00229A
:1003EC0008212F4800F0D4FF002210212C4800F0E7
:1003FC00CFFF002220212A4800F0CAFF0022402112
:10040C00274800F0C5FF47E000220121244800F0F6
:10041C00BFFF00220221224800F0BAFF0022042173
:10042C001F4800F0B5FF002208211D4800F0B0FF66
:10043C00012210211A4800F0ABFF0022202118489D
:10044C0000F0A6FF00224021154800F0A1FF23E098
:10045C0001220121124800F09BFF012202211048C9
:10046C0000F096FF012204210D4800F091FF0122BB
:10047C0008210B4800F08CFF01221021084800F0E5
:10048C0087FF01222021064800F082FF0122402133
:10049C00034800F07DFF00BF00BF0837BD4680BD9C
:1004AC00000C014080B582B000AF78607B68092BEE
:1004BC0000F2BE8101A252F823F000BFF104000843
:1004CC004505000899050008ED05000841060008DF
:1004DC0095060008E90600083D070008910700088A
:1004EC00E507000800228021D04800F051FF0022CF
:1004FC004FF48071CD4800F04BFF00224FF4007197
:10050C00CA4800F045FF00224FF48061C74800F054
:10051C003FFF00224FF40061C44800F039FF002275
:10052C004FF48051C14800F033FF01224FF40051C9
:10053C00BE4800F02DFFA5E101228021BB4800F050
:10054C0027FF00224FF48071B84800F021FF0022F1
:10055C004FF40071B54800F01BFF01224FF480618D
:10056C00B24800F015FF01224FF40061AF4800F0D3
:10057C000FFF01224FF48051AC4800F009FF01221B
:10058C004FF40051A94800F003FF7BE100228021C9
:10059C00A64800F0FDFE00224FF48071A34800F045
:1005AC00F7FE01224FF40071A04800F0F1FE00228A
:1005BC004FF480619D4800F0EBFE00224FF4006187
:1005CC009A4800F0E5FE01224FF48051974800F064
:1005DC00DFFE00224FF40051944800F0D9FE51E1A7
:1005EC0000228021914800F0D3FE00224FF480714C
:1005FC008E4800F0CDFE00224FF400718B4800F0C5
:10060C00C7FE00224FF48061884800F0C1FE012231
:10061C004FF40061854800F0BBFE01224FF480517D
:10062C00824800F0B5FE00224FF400517F4800F0E4
:10063C00AFFE27E1012280217C4800F0A9FE0022B8
:10064C004FF48071794800F0A3FE00224FF4007142
:10065C00764800F09DFE01224FF48061734800F053
:10066C0097FE01224FF40061704800F091FE0022C9
:10067C004FF480516D4800F08BFE00224FF4005176
:10068C006A4800F085FEFDE000228021674800F0FA
:10069C007FFE01224FF48071644800F079FE002245
:1006AC004FF40071614800F073FE00224FF480613A
:1006BC005E4800F06DFE01224FF400615B4800F0D3
:1006CC0067FE00224FF48051584800F061FE002272
:1006DC004FF40051554800F05BFED3E0002280211E
:1006EC00524800F055FE01224FF480714F4800F043
:1006FC004FFE00224FF400714C4800F049FE0022DE
:10070C004FF48061494800F043FE00224FF4006131
:10071C00464800F03DFE00224FF48051434800F063
:10072C0037FE00224FF40051404800F031FEA9E0A2
:10073C00002280213D4800F02BFE00224FF48071F6
:10074C003A4800F025FE00224FF40071374800F0C3
:10075C001FFE01224FF48061344800F019FE012283
:10076C004FF40061314800F013FE01224FF4805128
:10077C002E4800F00DFE01224FF400512B4800F0E2
:10078C0007FE7FE000228021284800F001FE0022B5
:10079C004FF48071254800F0FBFD00224FF40071EE
:1007AC00224800F0F5FD00224FF480611F4800F054
:1007BC00EFFD00224FF400611C4800F0E9FD00221F
:1007CC004FF48051194800F0E3FD00224FF4005122
:1007DC00164800F0DDFD55E000228021134800F0A2
:1007EC00D7FD00224FF48071104800F0D1FD00229B
:1007FC004FF400710D4800F0CBFD00224FF48061E6
:10080C000A4800F0C5FD01224FF40061074800F0D2
:10081C00BFFD00224FF48051044800F0B9FD0022C6
:10082C004FF40051014800F0B3FD2BE0000C0140E7
:10083C0001228021154800F0ABFD01224FF480719C
:10084C00124800F0A5FD01224FF400710F4800F092
:10085C009FFD01224FF480610C4800F099FD0122AC
:10086C004FF40061094800F093FD01224FF48051D0
:10087C00064800F08DFD01224FF40051034800F0B2
:10088C0087FD00BF00BF0837BD4680BD000C01408E
:10089C0080B500AF974B1B68002B02D0012B15D0F5
:1008AC002EE001222021944800F072FD934B1B682E
:1008BC00002B05DC8F4B01221A60904B05221A602D
:1008CC008E4B1B68013B8D4A136019E08B4B1B68E8
:1008DC001846FFF735FC00222021874800F058FD10
:1008EC00864B1B68002B05DC824B00221A60834B65
:1008FC0005221A60814B1B68013B804A136000BFC4
:10090C007F4B1B68002B02D0012B15D02EE001224F
:10091C004021794800F03CFD7A4B1B68002B05DC2C
:10092C00774B01221A60774B02221A60754B1B68B9
:10093C00013B744A136019E0724B1B681846FFF7B1
:10094C00FFFB002240216C4800F022FD6D4B1B6820
:10095C00002B05DC6A4B00221A606A4B08221A60D5
:10096C00684B1B68013B674A136000BF664B1B68F2
:10097C00002B02D0012B15D02EE0012280215E48E5
:10098C0000F006FD614B1B68002B05DC5E4B012261
:10099C001A605E4B03221A605C4B1B68013B5B4A7E
:1009AC00136019E0594B1B681846FFF7C9FB00226E
:1009BC008021514800F0ECFC544B1B68002B05DCEB
:1009CC00514B00221A60514B07221A604F4B1B6887
:1009DC00013B4E4A136000BF4D4B1B68002B02D0ED
:1009EC00012B16D030E001224FF48071424800F008
:1009FC00CFFC484B1B68002B05DC454B01221A60D1
:100A0C00444B05221A60434B1B68013B414A13605F
:100A1C001AE0404B1B681846FFF744FD00224FF4C8
:100A2C008071354800F0B4FC3A4B1B68002B05DC98
:100A3C00374B00221A60374B05221A60354B1B6866
:100A4C00013B344A136000BF334B1B68002B02D0B0
:100A5C00012B16D030E001224FF40071264800F033
:100A6C0097FC2E4B1B68002B05DC2B4B01221A60CC
:100A7C002A4B02221A60294B1B68013B274A136040
:100A8C001AE0264B1B681846FFF70CFD00224FF4AA
:100A9C000071194800F07CFC204B1B68002B05DC16
:100AAC001D4B00221A601D4B08221A601B4B1B6841
:100ABC00013B1A4A136000BF194B1B68002B02D074
:100ACC00012B31D04BE001224FF480610A4800F039
:100ADC005FFC144B1B68002B05DC114B01221A60C8
:100AEC00104B03221A600F4B1B68013B0D4A13601D
:100AFC0035E000BF4C00002000080140040000203D
:100B0C0048000020000000200C00002008000020FD
:100B1C001C000020140000205000002010000020B9
:100B2C0054000020180000200E4B1B681846FFF7DD
:100B3C00B9FC00224FF480610B4800F029FC094BF2
:100B4C001B68002B05DC094B00221A60054B0722A1
:100B5C001A60044B1B68013B024A136000BF00BFC4
:100B6C0080BD00BF18000020000801405400002088
:100B7C0080B500AF00F028F900F009F800F042F859
:100B8C00FFF786FE4FF47A7000F080F9F8E780B535
:100B9C0090B000AF07F1180328220021184601F08D
:100BAC000FF83B1D00221A605A609A60DA601A61D5
:100BBC000223BB610123BB621023FB6200237B6316
:100BCC0007F11803184600F0FBFB0346002B01D07D
:100BDC0000F06EF80F237B600023BB600023FB60EA
:100BEC0000233B6100237B613B1D0021184600F074
:100BFC0067FE0346002B01D000F05AF800BF4037C7
:100C0C00BD4680BD80B586B000AF07F10803002259
:100C1C001A605A609A60DA60224B9B69214A43F051
:100C2C00040393611F4B9B6903F004037B607B6897
:100C3C001C4B9B691B4A43F008039361194B9B693E
:100C4C0003F008033B603B6800224FF6FF71164827
:100C5C0000F09EFB00224FF6FF71144800F098FB49
:100C6C004FF6FF73BB600123FB6000233B61022343
:100C7C007B6107F1080319460B4800F00FFA4FF699
:100C8C00FF73BB600123FB6000233B6102237B618C
:100C9C0007F108031946054800F000FA00BF1837A1
:100CAC00BD4680BD0010024000080140000C014010
:100CBC0080B400AF72B600BFFEE7000080B485B010
:100CCC0000AF154B9B69144A43F001039361124B1F
:100CDC009B6903F00103BB60BB680F4BDB690E4AD9
:100CEC0043F08053D3610C4BDB6903F080537B6082
:100CFC007B680A4B5B68FB60FB6823F0E063FB607E
:100D0C00FB6843F08063FB60044AFB68536000BFE0
:100D1C001437BD4680BC70470010024000000140F3
:100D2C0080B400AFFEE780B400AFFEE780B400AF44
:100D3C00FEE780B400AFFEE780B400AFFEE780B4FE
:100D4C0000AF00BFBD4680BC704780B400AF00BF91
:100D5C00BD4680BC704780B400AF00BFBD4680BCB0
:100D6C00704780B500AF00F075F800BF80BD80B44F
:100D7C0000AF00BFBD4680BC70470000FFF7F7FF17
:100D8C000B480C490C4A002302E0D458C4500433DD
:100D9C00C4188C42F9D3094A094C002301E01360B2
:100DAC000432A242FBD300F0E7FEFFF7E1FE7047EE
:100DBC00000000202C000020201C00082C0000202B
:100DCC005C000020FEE7000080B500AF084B1B68FC
:100DDC00074A43F010031360032000F02BF90F2097
:100DEC0000F008F8FFF76AFF0023184680BD00BF2B
:100DFC000020024080B582B000AF7860124B1A68B8
:100E0C00124B1B7819464FF47A73B3FBF1F3B2FB18
:100E1C00F3F3184600F035F90346002B01D00123FB
:100E2C000EE07B680F2B0AD8002279684FF0FF3058
:100E3C0000F00BF9064A7B681360002300E00123E5
:100E4C0018460837BD4680BD200000202800002031
:100E5C002400002080B400AF054B1B781A46054BCC
:100E6C001B681344034A136000BFBD4680BC704727
:100E7C00280000205800002080B400AF024B1B68F3
:100E8C001846BD4680BC70475800002080B584B021
:100E9C0000AF7860FFF7F0FFB8607B68FB60FB6821
:100EAC00B3F1FF3F05D00A4B1B781A46FB6813447D
:100EBC00FB6000BFFFF7E0FF0246BB68D31AFA687D
:100ECC009A42F7D800BF00BF1037BD4680BD00BFA7
:100EDC002800002080B485B000AF78607B6803F0F8
:100EEC000703FB600C4BDB68BB60BA684FF6FF0373
:100EFC001340BB60FB681A02BB68134343F0BF632B
:100F0C0043F40033BB60044ABB68D36000BF1437A2
:100F1C00BD4680BC704700BF00ED00E080B400AF60
:100F2C00044BDB681B0A03F007031846BD4680BC64
:100F3C00704700BF00ED00E080B483B000AF034603
:100F4C003960FB7197F90730002B0ADB3B68DAB28A
:100F5C000C4997F907301201D2B20B4483F80023E5
:100F6C000AE03B68DAB20849FB7903F00F03043B53
:100F7C001201D2B20B441A7600BF0C37BD4680BCAE
:100F8C00704700BF00E100E000ED00E080B489B0E4
:100F9C0000AFF860B9607A60FB6803F00703FB618F
:100FAC00FB69C3F10703042B28BF0423BB61FB6956
:100FBC000433062B02D9FB69033B00E000237B6161
:100FCC004FF0FF32BB6902FA03F3DA43BB681A40F5
:100FDC007B699A404FF0FF317B6901FA03F3D943E7
:100FEC007B680B40134318462437BD4680BC7047C2
:100FFC0080B582B000AF78607B68013BB3F1807F35
:10100C0001D301230FE00A4A7B68013B53600F2197
:10101C004FF0FF30FFF790FF054B00229A60044B16
:10102C0007221A60002318460837BD4680BD00BF52
:10103C0010E000E080B582B000AF78607868FFF710
:10104C0049FF00BF0837BD4680BD80B586B000AFF4
:10105C000346B9607A60FB7300237B61FFF75EFF88
:10106C0078617A68B9687869FFF790FF024697F95A
:10107C000F3011461846FFF75FFF00BF1837BD460B
:10108C0080BD80B582B000AF78607868FFF7B0FFA4
:10109C00034618460837BD4680BD000080B48BB0AF
:1010AC0000AF7860396000237B6200233B6248E12B
:1010BC0001227B6A02FA03F3FB613B681B68FA6945
:1010CC001340BB61BA69FB699A4240F037813B68B7
:1010DC005B68A34A93425ED0A14A934275D8A14A59
:1010EC00934258D09F4A93426FD89F4A934252D012
:1010FC009D4A934269D89D4A93424CD09B4A934255
:10110C0063D89B4A934246D0994A93425DD8122B9E
:10111C002AD8122B59D801A252F823F0A311000897
:10112C007D1100088F110008D1110008D71100089B
:10113C00D7110008D7110008D7110008D7110008E3
:10114C00D7110008D7110008D7110008D7110008D3
:10115C00D7110008D7110008D7110008D7110008C3
:10116C008511000899110008824A934213D02CE093
:10117C003B68DB683B6229E03B68DB6804333B621D
:10118C0024E03B68DB6808333B621FE03B68DB68AC
:10119C000C333B621AE03B689B68002B02D10423A2
:1011AC003B6213E03B689B68012B05D108233B6233
:1011BC007B68FA691A6109E008233B627B68FA696B
:1011CC005A6103E000233B6200E000BFBB69FF2BC8
:1011DC0001D87B6801E07B6804337B61BB69FF2B22
:1011EC0002D87B6A9B0002E07B6A083B9B003B6158
:1011FC007B691A680F213B6901FA03F3DB431A4040
:10120C00396A3B6901FA03F31A437B691A603B683C
:10121C005B6803F08053002B00F09080564B9B6969
:10122C00554A43F001039361534B9B6903F001034F
:10123C00BB60BB68514A7B6A9B08023352F823306F
:10124C00FB607B6A03F003039B000F2202FA03F39B
:10125C00DB43FA681340FB607B68494A93420DD02C
:10126C007B68484A934207D07B68474A934201D136
:10127C00022304E0032302E0012300E000237A6A46
:10128C0002F0030292009340FA681343FB603B495F
:10129C007B6A9B080233FA6841F823203B685B6841
:1012AC0003F48013002B06D0384B9A683749BB697E
:1012BC0013438B6006E0354B9A68BB69DB433349BB
:1012CC0013408B603B685B6803F40013002B06D063
:1012DC002E4BDA682D49BB691343CB6006E02B4BD0
:1012EC00DA68BB69DB4329491340CB603B685B6818
:1012FC0003F40033002B06D0244B5A682349BB69F6
:10130C0013434B6006E0214B5A68BB69DB431F4912
:10131C0013404B603B685B6803F48033002B06D0B2
:10132C001A4B1A681949BB6913430B6006E0174B3B
:10133C001A68BB69DB43154913400B607B6A0133A8
:10134C007B623B681A687B6A22FA03F3002B7FF4FA
:10135C00AFAE00BF00BF2C37BD4680BC704700BF8E
:10136C00000032100000311000002210000021108B
:10137C00000012100000111000100240000001408B
:10138C0000080140000C0140001001400004014025
:10139C0080B483B000AF78600B467B8013467B70C3
:1013AC007B78002B03D07A887B681A6103E07B88FA
:1013BC001A047B681A6100BF0C37BD4680BC7047AD
:1013CC0080B586B000AF78607B68002B01D101231B
:1013DC006CE27B681B6803F00103002B00F0878034
:1013EC00924B5B6803F00C03042B0CD08F4B5B68A7
:1013FC0003F00C03082B12D18C4B5B6803F4803385
:10140C00B3F5803F0BD1894B1B6803F40033002BE1
:10141C006CD07B685B68002B68D1012346E27B684B
:10142C005B68B3F5803F06D1804B1B687F4A43F461
:10143C00803313602EE07B685B68002B0CD17B4BF8
:10144C001B687A4A23F480331360784B1B68774A05
:10145C0023F4802313601DE07B685B68B3F5A02F39
:10146C000CD1724B1B68714A43F4802313606F4B91
:10147C001B686E4A43F4803313600BE06B4B1B68A4
:10148C006A4A23F480331360684B1B68674A23F461
:10149C00802313607B685B68002B13D0FFF7ECFC98
:1014AC00386108E0FFF7E8FC02463B69D31A642B6D
:1014BC0001D90323FAE15D4B1B6803F40033002BC5
:1014CC00F0D014E0FFF7D8FC386108E0FFF7D4FC4B
:1014DC0002463B69D31A642B01D90323E6E1534B33
:1014EC001B6803F40033002BF0D100E000BF7B68D5
:1014FC001B6803F00203002B63D04C4B5B6803F0BA
:10150C000C03002B0BD0494B5B6803F00C03082B2E
:10151C001CD1464B5B6803F48033002B16D1434B34
:10152C001B6803F00203002B05D07B681B69012BA1
:10153C0001D00123BAE13D4B1B6823F0F8027B6814
:10154C005B69DB00394913430B603AE07B681B692C
:10155C00002B20D0364B01221A60FFF78DFC38612E
:10156C0008E0FFF789FC02463B69D31A022B01D92C
:10157C0003239BE12D4B1B6803F00203002BF0D0DF
:10158C002A4B1B6823F0F8027B685B69DB00274958
:10159C0013430B6015E0264B00221A60FFF76CFC1E
:1015AC00386108E0FFF768FC02463B69D31A022B4E
:1015BC0001D903237AE11D4B1B6803F00203002BB6
:1015CC00F0D17B681B6803F00803002B3AD07B68D2
:1015DC009B69002B19D0174B01221A60FFF74CFCAA
:1015EC00386108E0FFF748FC02463B69D31A022B2E
:1015FC0001D903235AE10D4B5B6A03F00203002B64
:10160C00F0D0012000F09AFA1CE00A4B00221A607C
:10161C00FFF732FC38610FE0FFF72EFC02463B6906
:10162C00D31A022B08D9032340E100BF001002405B
:10163C0000004242800442429E4B5B6A03F002036C
:10164C00002BE9D17B681B6803F00403002B00F02E
:10165C00A6800023FB75974BDB6903F08053002BAE
:10166C000DD1944BDB69934A43F08053D361914B7A
:10167C00DB6903F08053BB60BB680123FB758E4BA9
:10168C001B6803F48073002B18D18B4B1B688A4AA0
:10169C0043F480731360FFF7EFFB386108E0FFF74A
:1016AC00EBFB02463B69D31A642B01D90323FDE003
:1016BC00814B1B6803F48073002BF0D07B68DB68D4
:1016CC00012B06D17B4B1B6A7A4A43F00103136250
:1016DC002DE07B68DB68002B0CD1764B1B6A754ABE
:1016EC0023F001031362734B1B6A724A23F0040349
:1016FC0013621CE07B68DB68052B0CD16D4B1B6AFD
:10170C006C4A43F0040313626A4B1B6A694A43F048
:10171C00010313620BE0674B1B6A664A23F001035B
:10172C001362644B1B6A634A23F0040313627B68E5
:10173C00DB68002B15D0FFF79FFB38610AE0FFF741
:10174C009BFB02463B69D31A41F28832934201D982
:10175C000323ABE0574B1B6A03F00203002BEED0C4
:10176C0014E0FFF789FB38610AE0FFF785FB0246BE
:10177C003B69D31A41F28832934201D9032395E095
:10178C004C4B1B6A03F00203002BEED1FB7D012BAB
:10179C0005D1484BDB69474A23F08053D3617B6802
:1017AC00DB69002B00F08180424B5B6803F00C037B
:1017BC00082B61D07B68DB69022B46D13F4B0022A2
:1017CC001A60FFF759FB386108E0FFF755FB02463A
:1017DC003B69D31A022B01D9032367E0354B1B68F5
:1017EC0003F00073002BF0D17B681B6AB3F5803FCC
:1017FC0008D1304B5B6823F400327B689B682D4921
:10180C0013434B602B4B5B6823F474127B68196A8F
:10181C007B685B6A0B43274913434B60274B0122C0
:10182C001A60FFF729FB386108E0FFF725FB024639
:10183C003B69D31A022B01D9032337E01D4B1B68DC
:10184C0003F00073002BF0D02FE01C4B00221A6029
:10185C00FFF712FB386108E0FFF70EFB02463B690D
:10186C00D31A022B01D9032320E0124B1B6803F07F
:10187C000073002BF0D118E07B68DB69012B01D1E0
:10188C00012313E00B4B5B68FB60FB6803F48032B5
:10189C007B681B6A9A4206D1FB6803F470127B6862
:1018AC005B6A9A4201D0012300E0002318461837E6
:1018BC00BD4680BD001002400070004060004242F6
:1018CC0080B584B000AF786039607B68002B01D1A3
:1018DC000123D0E06A4B1B6803F007033A689A4275
:1018EC0010D9674B1B6823F0070265493B6813430B
:1018FC000B60634B1B6803F007033A689A4201D0F4
:10190C000123B8E07B681B6803F00203002B20D096
:10191C007B681B6803F00403002B05D0594B5B68F4
:10192C00584A43F4E06353607B681B6803F0080378
:10193C00002B05D0534B5B68524A43F46053536001
:10194C00504B5B6823F0F0027B689B684D49134356
:10195C004B607B681B6803F00103002B40D07B6855
:10196C005B68012B07D1474B1B6803F40033002B3A
:10197C0015D101237FE07B685B68022B07D1414BBB
:10198C001B6803F00073002B09D1012373E03D4B5E
:10199C001B6803F00203002B01D101236BE0394BD0
:1019AC005B6823F003027B685B68364913434B602A
:1019BC00FFF762FAF8600AE0FFF75EFA0246FB688E
:1019CC00D31A41F28832934201D9032353E02D4BB1
:1019DC005B6803F00C027B685B689B009A42EBD15E
:1019EC00274B1B6803F007033A689A4210D2244B2A
:1019FC001B6823F0070222493B6813430B60204B02
:101A0C001B6803F007033A689A4201D0012332E0C5
:101A1C007B681B6803F00403002B08D0194B5B6830
:101A2C0023F4E0627B68DB68164913434B607B68E8
:101A3C001B6803F00803002B09D0124B5B6823F4DE
:101A4C0060527B681B69DB000E4913434B6000F04E
:101A5C0021F802460B4B5B681B0903F00F030A4984
:101A6C00CB5C22FA03F3094A1360094B1B68184636
:101A7C00FFF7C0F9002318461037BD4680BD00BFE4
:101A8C000020024000100240F41B0008200000203F
:101A9C002400002080B487B000AF0023FB6000233B
:101AAC00BB6000237B6100237B6000233B611E4BEA
:101ABC005B68FB60FB6803F00C03042B02D0082B63
:101ACC0003D027E0194B3B6127E0FB689B0C03F02C
:101ADC000F03174AD35C7B60FB6803F48033002B45
:101AEC0010D0114B5B685B0C03F00103114AD35C03
:101AFC00BB607B680D4A02FB03F2BB68B2FBF3F3DD
:101B0C007B6104E07B680C4A02FB03F37B617B691D
:101B1C003B6102E0054B3B6100BF3B6918461C373B
:101B2C00BD4680BC704700BF0010024000127A0016
:101B3C00041C0008141C000800093D0080B485B08A
:101B4C0000AF78600A4B1B680A4AA2FB03235B0AAE
:101B5C007A6802FB03F3FB6000BFFB685A1EFA6055
:101B6C00002BF9D100BF00BF1437BD4680BC7047B5
:101B7C0020000020D34D621070B500260C4D0D4C8A
:101B8C00641BA410A64209D100F022F800260A4DCD
:101B9C000A4C641BA410A64205D170BD55F8043B39
:101BAC0098470136EEE755F8043B98470136F2E7C3
:101BBC00181C0008181C0008181C00081C1C000825
:101BCC0003460244934200D1704703F8011BF9E726
:101BDC00F8B500BFF8BC08BC9E467047F8B500BF0E
:081BEC00F8BC08BC9E467047DE
:101BF40000000000000000000102030406070809B9
:101C040002030405060708090A0B0C0D0E0F101039
:041C140001020000C9
:041C1800310100088E
:041C1C000D010008AE
:101C200003000000050000000300000001000000A8
:101C30000800000005000000050000000100000091
:0C1C400000127A001000000001000000FB
:0400000508000D8959
:00000001FF
